:020000040800F2
:10000000005000203985000899850008998500086E
:10001000998500089985000899850008000000006E
:1000200000000000000000000000000099850008AA
:10003000998500080000000099850008FB770008FA
:100040009985000899850008998500089985000818
:100050009985000899850008E9780008EF7800087C
:10006000F5780008FB7800080179000899850008F8
:1000700099850008998500089985000899850008E8
:1000800099850008998500089985000899850008D8
:100090009985000899850008998500080779000866
:1000A000998500081D7400089985000831740008BE
:1000B00035740008497400085D740008A542000802
:1000C000B1420008BD420008C942000899850008F5
:1000D0009985000895840008AD840008C98400084B
:1000E0001D79000899850008998500080000000026
:1000F0000000000000000000000000000000000000
:0C01000000000000000000005FF808F1A3
:10011000034613F8012B002AFBD1181A0138704747
:1001200081F0004102E000BF83F0004330B54FEAA8
:1001300041044FEA430594EA050F08BF90EA020F15
:100140001FBF54EA000C55EA020C7FEA645C7FEAA8
:10015000655C00F0E2804FEA5454D4EB5555B8BFCB
:100160006D420CDD2C4480EA020281EA030382EA3C
:10017000000083EA010180EA020281EA0303362DCE
:1001800088BF30BD11F0004F4FEA01314FF4801CA1
:100190004CEA113102D0404261EB410113F0004FB3
:1001A0004FEA03334CEA133302D0524263EB43036A
:1001B00094EA050F00F0A780A4F10104D5F1200E08
:1001C0000DDB02FA0EFC22FA05F2801841F1000163
:1001D00003FA0EF2801843FA05F359410EE0A5F137
:1001E00020050EF1200E012A03FA0EFC28BF4CF068
:1001F000020C43FA05F3C01851EBE37101F000451E
:1002000007D54FF0000EDCF1000C7EEB00006EEB2A
:100210000101B1F5801F1BD3B1F5001F0CD34908B4
:100220005FEA30004FEA3C0C04F101044FEA44520B
:1002300012F5800F80F09A80BCF1004F08BF5FEA92
:10024000500C50F1000041EB045141EA050130BD72
:100250005FEA4C0C404141EB0101013C28BFB1F584
:10026000801FE9D291F0000F04BF01460020B1FACF
:1002700081F308BF2033A3F10B03B3F120020CDAA2
:100280000C3208DD02F1140CC2F10C0201FA0CF080
:1002900021FA02F10CE002F11402D8BFC2F1200CE5
:1002A00001FA02F120FA0CFCDCBF41EA0C0190409B
:1002B000E41AA2BF01EB0451294330BD6FEA0404E4
:1002C0001F3C1CDA0C340EDC04F11404C4F12002CF
:1002D00020FA04F001FA02F340EA030021FA04F3E1
:1002E00045EA030130BDC4F10C04C4F1200220FA38
:1002F00002F001FA04F340EA0300294630BD21FA76
:1003000004F0294630BD94F0000F83F4801306BF3B
:1003100081F480110134013D4EE77FEA645C18BF2F
:100320007FEA655C29D094EA050F08BF90EA020FC6
:1003300005D054EA000C04BF1946104630BD91EABE
:10034000030F1EBF0021002030BD5FEA545C05D1C1
:100350004000494128BF41F0004130BD14F5800400
:100360003CBF01F5801130BD01F0004545F0FE4174
:1003700041F470014FF0000030BD7FEA645C1ABFA9
:10038000194610467FEA655C1CBF0B46024650EAE0
:10039000013406BF52EA033591EA030F41F400210C
:1003A00030BD00BF90F0000F04BF0021704730B592
:1003B0004FF4806404F132044FF000054FF0000167
:1003C00050E700BF90F0000F04BF0021704730B528
:1003D0004FF4806404F1320410F0004548BF4042FD
:1003E0004FF000013EE700BF42004FEAE2014FEA52
:1003F00031014FEA02701FBF12F07F4393F07F4F2D
:1004000081F06051704732F07F4208BF704793F02F
:100410007F4F04BF41F40021704730B54FF4607442
:1004200001F0004521F000411CE700BF50EA010245
:1004300008BF704730B54FF000050AE050EA0102EE
:1004400008BF704730B511F0004502D5404261EB5E
:1004500041014FF4806404F132045FEA915C3FF49F
:10046000D8AE4FF003025FEADC0C18BF03325FEA3C
:10047000DC0C18BF033202EBDC02C2F1200300FAED
:1004800003FC20FA02F001FA03FE40EA0E0021FA12
:1004900002F11444BDE600BF70B54FF0FF0C4CF400
:1004A000E06C1CEA11541DBF1CEA135594EA0C0FB2
:1004B00095EA0C0F00F0DEF82C4481EA030621EAED
:1004C0004C5123EA4C5350EA013518BF52EA033528
:1004D00041F4801143F4801338D0A0FB02CE4FF0DA
:1004E0000005E1FB02E506F00042E0FB03E54FF00A
:1004F0000006E1FB03569CF0000F18BF4EF0010E02
:10050000A4F1FF04B6F5007F64F5407404D25FEAFD
:100510004E0E6D4146EB060642EAC62141EA5551B0
:100520004FEAC52040EA5E504FEACE2EB4F1FD0CF2
:1005300088BFBCF5E06F1ED8BEF1004F08BF5FEA70
:10054000500E50F1000041EB045170BD06F0004622
:1005500046EA010140EA020081EA0301B4EB5C04CF
:10056000C2BFD4EB0C0541EA045170BD41F48011C7
:100570004FF0000E013C00F3AB8014F1360FDEBFEC
:10058000002001F0004170BDC4F10004203C35DAC8
:100590000C341BDC04F11404C4F1200500FA05F34B
:1005A00020FA04F001FA05F240EA020001F00042EC
:1005B00021F0004110EBD37021FA04F642EB060162
:1005C0005EEA430E08BF20EAD37070BDC4F10C048C
:1005D000C4F1200500FA04F320FA05F001FA04F250
:1005E00040EA020001F0004110EBD37041F100013C
:1005F0005EEA430E08BF20EAD37070BDC4F1200547
:1006000000FA05F24EEA020E20FA04F301FA05F2AE
:1006100043EA020321FA04F001F0004121FA04F256
:1006200020EA020000EBD3705EEA430E08BF20EA26
:10063000D37070BD94F0000F0FD101F00046400060
:1006400041EB010111F4801F08BF013CF7D041EAE2
:10065000060195F0000F18BF704703F000465200E6
:1006600043EB030313F4801F08BF013DF7D043EAB7
:100670000603704794EA0C0F0CEA135518BF95EA6D
:100680000C0F0CD050EA410618BF52EA4306D1D1F4
:1006900081EA030101F000414FF0000070BD50EA13
:1006A000410606BF1046194652EA430619D094EA9D
:1006B0000C0F02D150EA013613D195EA0C0F05D187
:1006C00052EA03361CBF104619460AD181EA0301DB
:1006D00001F0004141F0FE4141F470014FF0000093
:1006E00070BD41F0FE4141F4780170BD70B54FF02E
:1006F000FF0C4CF4E06C1CEA11541DBF1CEA1355AE
:1007000094EA0C0F95EA0C0F00F0A7F8A4EB05048F
:1007100081EA030E52EA03354FEA013100F0888086
:100720004FEA03334FF0805545EA131343EA12634F
:100730004FEA022245EA111545EA10654FEA002604
:100740000EF000419D4208BF964244F1FD0404F5BD
:10075000407402D25B084FEA3202B61A65EB030519
:100760005B084FEA32024FF480104FF4002CB6EBD6
:10077000020E75EB030E22BFB61A754640EA0C0056
:100780005B084FEA3202B6EB020E75EB030E22BF96
:10079000B61A754640EA5C005B084FEA3202B6EBD7
:1007A000020E75EB030E22BFB61A754640EA9C0096
:1007B0005B084FEA3202B6EB020E75EB030E22BF66
:1007C000B61A754640EADC0055EA060E18D04FEA24
:1007D000051545EA16754FEA06164FEAC30343EAC4
:1007E00052734FEAC2025FEA1C1CC0D111F4801F91
:1007F0000BD141EA00014FF000004FF0004CB6E78A
:1008000011F4801F04BF01430020B4F1FD0C88BF28
:10081000BCF5E06F3FF6AFAEB5EB030C04BFB6EB33
:10082000020C5FEA500C50F1000041EB045170BD26
:100830000EF0004E4EEA113114EB5C04C2BFD4EB53
:100840000C0541EA045170BD41F480114FF0000ED7
:10085000013C90E645EA060E8DE60CEA135594EA53
:100860000C0F08BF95EA0C0F3FF43BAF94EA0C0F56
:100870000AD150EA01347FF434AF95EA0C0F7FF4CB
:1008800025AF104619462CE795EA0C0F06D152EA1F
:1008900003353FF4FDAE1046194622E750EA410603
:1008A00018BF52EA43067FF4C5AE50EA41047FF414
:1008B0000DAF52EA43057FF4EBAE12E74FF0FF3C79
:1008C00006E000BF4FF0010C02E000BF4FF0010C4A
:1008D0004DF804CD4FEA410C7FEA6C5C4FEA430CC3
:1008E00018BF7FEA6C5C1BD001B050EA410C0CBF12
:1008F00052EA430C91EA030F02BF90EA020F002074
:10090000704710F1000F91EA030F58BF994208BFDA
:1009100090422CBFD8176FEAE37040F00100704797
:100920004FEA410C7FEA6C5C02D150EA013C07D1EE
:100930004FEA430C7FEA6C5CD6D152EA033CD3D039
:100940005DF8040B704700BF8446104662468C4633
:100950001946634600E000BF01B5FFF7B7FF002866
:1009600048BF10F1000F01BD4DF808EDFFF7F4FF8F
:100970000CBF012000205DF808FB00BF4DF808ED1A
:10098000FFF7EAFF34BF012000205DF808FB00BF3D
:100990004DF808EDFFF7E0FF94BF012000205DF85F
:1009A00008FB00BF4DF808EDFFF7CEFF94BF012014
:1009B00000205DF808FB00BF4DF808EDFFF7C4FF0D
:1009C00034BF012000205DF808FB00BF4FEA410C56
:1009D0007FEA6C5C02D150EA013C0AD14FEA430C39
:1009E0007FEA6C5C02D152EA033C02D14FF0000076
:1009F00070474FF0010070474FEA410212F50012B4
:100A000015D211D56FF47873B3EB625212D94FEA55
:100A1000C12343F0004343EA505311F0004F23FA3F
:100A200002F018BF404270474FF00000704750EA94
:100A3000013005D111F0004008BF6FF00040704751
:100A40004FF00000704700BF4A0011D212F50012AB
:100A500011D20DD56FF47873B3EB62520ED44FEA16
:100A6000C12343F0004343EA505323FA02F0704796
:100A70004FF00000704750EA013002D14FF0FF30D4
:100A800070474FF0000070474FEA4102B2F1E04377
:100A900024BFB3F5001CDCF1FE5C0DD901F0004C65
:100AA0004FEAC0024CEA5070B2F1004F40EB8300B5
:100AB00008BF20F00100704711F0804F21D113F1E1
:100AC0003872BCBF01F00040704741F480114FEA1A
:100AD0005252C2F11802C2F1200C10FA0CF320FAA3
:100AE00002F018BF40F001004FEAC1234FEAD323C0
:100AF00003FA0CFC40EA0C0023FA02F34FEA43032A
:100B0000CCE77FEA625307D150EA01331EBF4FF0B2
:100B1000FE4040F44000704701F0004040F0FE40CD
:100B200040F40000704700BF80F0004002E000BFCA
:100B300081F0004142001FBF5FEA410392EA030FC8
:100B40007FEA226C7FEA236C6AD04FEA1262D2EB12
:100B50001363C1BFD218414048404140B8BF5B4217
:100B6000192B88BF704710F0004F40F4000020F0B0
:100B70007F4018BF404211F0004F41F4000121F0C6
:100B80007F4118BF494292EA030F3FD0A2F1010210
:100B900041FA03FC10EB0C00C3F1200301FA03F14E
:100BA00000F0004302D5494260EB4000B0F5000F71
:100BB00013D3B0F1807F06D340084FEA310102F130
:100BC0000102FE2A51D2B1F1004F40EBC25008BFE2
:100BD00020F0010040EA03007047490040EB0000AC
:100BE000013A28BFB0F5000FEDD2B0FA80FCACF1AD
:100BF000080CB2EB0C0200FA0CF0AABF00EBC250DA
:100C000052421843BCBFD0401843704792F0000FC7
:100C100081F4000106BF80F400000132013BB5E71A
:100C20004FEA41037FEA226C18BF7FEA236C21D090
:100C300092EA030F04D092F0000F08BF08467047F5
:100C400090EA010F1CBF0020704712F07F4F04D1C3
:100C5000400028BF40F00040704712F100723CBFD6
:100C600000F50000704700F0004343F0FE4040F400
:100C7000000070477FEA226216BF08467FEA2363BE
:100C80000146420206BF5FEA412390EA010F40F4A9
:100C9000800070474FF0000304E000BF10F00043F5
:100CA00048BF40425FEA000C08BF704743F09643DC
:100CB00001464FF000001CE050EA010208BF7047F7
:100CC0004FF000030AE000BF50EA010208BF70477E
:100CD00011F0004302D5404261EB41015FEA010C93
:100CE00002BF84460146002043F0B64308BFA3F18B
:100CF0008053A3F50003BCFA8CF2083AA3EBC2536D
:100D000010DB01FA02FC634400FA02FCC2F120028B
:100D1000BCF1004F20FA02F243EB020008BF20F0C2
:100D20000100704702F1200201FA02FCC2F1200228
:100D300050EA4C0021FA02F243EB020008BF20EA1D
:100D4000DC7070474FF0FF0C1CEAD0521EBF1CEA4B
:100D5000D15392EA0C0F93EA0C0F6FD01A4480EA39
:100D6000010C400218BF5FEA41211ED04FF0006322
:100D700043EA501043EA5111A0FB01310CF000404E
:100D8000B1F5000F3EBF490041EAD3715B0040EA74
:100D9000010062F17F02FD2A1DD8B3F1004F40EB44
:100DA000C25008BF20F00100704790F0000F0CF017
:100DB000004C08BF49024CEA502040EA51207F3ADB
:100DC000C2BFD2F1FF0340EAC250704740F40000B6
:100DD0004FF00003013A5DDC12F1190FDCBF00F0A7
:100DE00000407047C2F10002410021FA02F1C2F155
:100DF000200200FA02FC5FEA310040F1000053EAF1
:100E00004C0308BF20EADC70704792F0000F00F03E
:100E1000004C02BF400010F4000F013AF9D040EA44
:100E20000C0093F0000F01F0004C02BF490011F4D8
:100E3000000F013BF9D041EA0C018FE70CEAD153D6
:100E400092EA0C0F18BF93EA0C0F0AD030F0004C56
:100E500018BF31F0004CD8D180EA010000F000400A
:100E6000704790F0000F17BF90F0004F084691F0C8
:100E7000000F91F0004F14D092EA0C0F01D1420202
:100E80000FD193EA0C0F03D14B0218BF084608D1CB
:100E900080EA010000F0004040F0FE4040F4000015
:100EA000704740F0FE4040F4400070474FF0FF0CA8
:100EB0001CEAD0521EBF1CEAD15392EA0C0F93EAEF
:100EC0000C0F69D0A2EB030280EA010C49024FEA41
:100ED000402037D04FF0805343EA111143EA1013FA
:100EE0000CF000408B4238BF5B0042F17D024FF4B2
:100EF000000C8B4224BF5B1A40EA0C00B3EB510F8D
:100F000024BFA3EB510340EA5C00B3EB910F24BF75
:100F1000A3EB910340EA9C00B3EBD10F24BFA3EBFA
:100F2000D10340EADC001B0118BF5FEA1C1CE0D1C2
:100F3000FD2A3FF650AF8B4240EBC25008BF20F075
:100F4000010070470CF0004C4CEA50207F32C2BFC9
:100F5000D2F1FF0340EAC250704740F400004FF066
:100F60000003013A37E792F0000F00F0004C02BF97
:100F7000400010F4000F013AF9D040EA0C0093F061
:100F8000000F01F0004C02BF490011F4000F013BBB
:100F9000F9D041EA0C0195E70CEAD15392EA0C0F23
:100FA00008D142027FF47DAF93EA0C0F7FF470AF5B
:100FB000084676E793EA0C0F04D14B023FF44CAF9E
:100FC00008466EE730F0004C18BF31F0004CCAD133
:100FD00030F000427FF45CAF31F000437FF43CAF6F
:100FE0005FE700BF4FF0FF3C06E000BF4FF0010C91
:100FF00002E000BF4FF0010C4DF804CD4FEA400273
:101000004FEA41037FEA226C18BF7FEA236C11D0BC
:1010100001B052EA530C18BF90EA010F58BFB2EB6F
:10102000030088BFC81738BF6FEAE17018BF40F0EF
:10103000010070477FEA226C02D15FEA402C05D1A3
:101040007FEA236CE4D15FEA412CE1D05DF8040B28
:10105000704700BF844608466146FFE70FB5FFF7BB
:10106000C9FF002848BF10F1000F0FBD4DF808ED73
:10107000FFF7F4FF0CBF012000205DF808FB00BF64
:101080004DF808EDFFF7EAFF34BF012000205DF8BE
:1010900008FB00BF4DF808EDFFF7E0FF94BF01200B
:1010A00000205DF808FB00BF4DF808EDFFF7D2FF08
:1010B00094BF012000205DF808FB00BF4DF808ED4B
:1010C000FFF7C8FF34BF012000205DF808FB00BF18
:1010D0004FEA4002B2F1FE4F0FD34FF09E03B3EB45
:1010E00012620DD94FEA002343F0004310F0004F85
:1010F00023FA02F018BF404270474FF000007047DB
:1011000012F1610F01D1420205D110F0004008BF79
:101110006FF0004070474FF00000704742000ED261
:10112000B2F1FE4F0BD34FF09E03B3EB126209D422
:101130004FEA002343F0004323FA02F070474FF0D8
:101140000000704712F1610F01D1420202D14FF04D
:10115000FF3070474FF00000704700BF53B94AB9E5
:10116000002908BF00281CBF4FF0FF314FF0FF30AF
:1011700000F00CB8ADF1080C6DE904CE09F0CAFE20
:10118000DDF804E0DDE9022304B07047704700BFDA
:1011900010B5054C237833B9044B13B10448AFF3B1
:1011A00000800123237010BD5401002000000000C6
:1011B000D0B1000808B5034B1BB103490348AFF396
:1011C000008008BD0000000058010020D0B10008D8
:1011D000012108B5074B1F20197007F005FE064BCB
:1011E000186807F07DFEBDE8084000211F2007F0C9
:1011F000FBBD00BF82010020BC000020012108B51A
:10120000074B1F20197007F0EFFD064B186807F019
:1012100067FEBDE8084000211F2007F0E5BD00BFC4
:1012200081010020BC000020836810B5044613B182
:10123000032201469847204610BD00002DE9F047E3
:101240000546894690461E46FFF742FF0446FFF7D3
:1012500025FD01462846FFF76BFC00252E4F45452E
:1012600030DBFFF735FF002705464FF0300A3046E8
:10127000FEF74EFFB8422AD86CB32046FFF7A2F81B
:1012800008F07EFB0022254BFEF750FF08F020FC03
:10129000FFF7B2FB82460AEB0807A9EB07073021EC
:1012A000304627EAE77207F069FFBCB92E2357449E
:1012B0007A1CF119F35505BB0023324402F80830BB
:1012C000BDE8F0873946FFF73DFD0135C7E706F871
:1012D00007A00137CBE74FF0010ADCE70A220AF149
:1012E000FF33F019002BE1DB94FBF2F102FB114418
:1012F0003034C4540C46013BF4E70A2008F1FF33B4
:101300000131002BD8DB95FBF0F400FB1455303590
:10131000CD542546013BF4E7000020410000F03F9A
:1013200073B5514D06224FF41651504807F0F8FAA4
:10133000284600230222102102F054F84FF4D07303
:101340004B4800244360032642F2107306701522B6
:10135000CDE900344749484B01F081FE214628463B
:10136000464A02F047F928460121454A02F042F96F
:1013700028460221434A02F03DF931462846424AB6
:1013800002F038F928460421404A02F033F9284691
:1013900005213F4A02F02EF922462146284602F056
:1013A00003F828463B4907F047FB0122214628461F
:1013B00001F0FAFF2846384907F03EFB01210C20D6
:1013C00007F0B4FC0121084607F0B0FC0121C2205F
:1013D00007F0ACFC0121C32007F0A8FC01211E206E
:1013E00007F0A4FC01211F2007F0A0FC2146C22029
:1013F00007F0FAFC2146C32007F0F6FC21461E2028
:1014000007F0F2FC01211F2007F0EEFC214601202D
:1014100007F0EAFC21460C2007F0E6FC22460121F9
:101420001E4802F002F9224601211D4802F0FDF893
:101430001C4802F077FA02F04EF91B491B4802F0F3
:101440006EFF1B491B4802F06AFF4FF42F7007F034
:1014500047FD21461F2007F0C7FC284602B0BDE823
:10146000704001F087BF00BF78020020E004002038
:10147000A40100203800002040679A0EB40000202C
:10148000AC000020A40000209C000020940000205C
:101490008C000020E8B10008F8B1000874020020B8
:1014A00070020020C0000020D1110008300200208E
:1014B000FD110008F00100200022C0E90022C0E96F
:1014C00002227047F0B50D4616468DB078BB2A4F04
:1014D0003C6834B1204605F09FFEB021204606F05E
:1014E00005F9B02006F000F90446244B196805F010
:1014F000BFFF234B002104A83C601F68FFF7DCFFFF
:10150000002108A8FFF7D8FF08AB029304ABCDE990
:1015100000630C222B463946204606F065F808A8E1
:10152000FFF782FE04A8FFF77FFE0DB0F0BD154F58
:101530003C6834B1204605F06FFEB021204606F02D
:10154000D5F8B02006F0D0F804460F4B196805F026
:101550008FFF0E4B002104A83C601F68FFF7ACFF13
:10156000002108A8FFF7A8FF08AB029304ABCDE960
:10157000006301222B46CEE7880100209C01002059
:101580009801002084010020900100208C0100209F
:1015900070B506460846FEF715FF04460D46304670
:1015A000FEF710FF22462B46BDE8704008F01CBA3B
:1015B0007FB506230722CDE9013205230D220093D2
:1015C0000E210423244801F0E1FFC822C921234849
:1015D00002F025F8C622C521214802F020F8214D4D
:1015E00000230122C721204802F074FE1F4C012273
:1015F0000023C4211E4802F06DFE1E4E286B2146BA
:10160000306006F021FC1C4B21461860306806F063
:101610003DFC1A4BC0F3C43018606868184D214671
:10162000286006F011FC174B21461860286806F068
:101630002DFC154BC0F3C4301860144B1868FFF72D
:101640006DFD134B1860134B1868FFF767FD124BC5
:10165000186004B070BD00BF780200207402002042
:1016600070020020ACB700083002002020B500084E
:10167000F0010020A00100209C0100209801002022
:1016800094010020900100208C010020080000201F
:101690007C01002000000020740100202DE9F84F9B
:1016A000642007F01DFC764801F064FE744801F0E8
:1016B0008DFF00227248114601F076FE002170482D
:1016C00001F04EFE00220F216D4801F06DFE012158
:1016D0006B4801F045FE00220121694801F064FEDB
:1016E0006849674807F0A8F901220021644801F021
:1016F0005BFE6549624807F09FF9644802F038FED6
:10170000634802F035FE0024DFF88881DFF888A105
:10171000DFF888B10027B94698F8003088F80090C3
:101720004BB15F4B0A2221465E481F7007F0D9F982
:101730002046BDE8F88F504601F08AFF054658461E
:1017400001F086FF0646514802F012FE504802F0B2
:101750000FFE2DB9002EDFD0534B1B68002BDBDDB5
:1017600001211F2007F040FB4F4B186807F0B8FB22
:1017700000211F2007F038FB002DCDD0102D0AD1FD
:101780000134072C1DD0631E052B1AD8DFE803F0A7
:101790002D4050576705013CF5D200220121384801
:1017A00001F002FE4149364807F046F901220021C6
:1017B000334801F0F9FD3E49314807F03DF9062470
:1017C000A8E7002201212E4801F0EEFD39492C48FE
:1017D00007F032F901220021294801F0E5FD2A49EC
:1017E000274807F029F9002494E700220121244822
:1017F00001F0DAFD3049224807F01EF900210122EC
:101800001F4801F0D1FD20491D4807F015F981E777
:10181000012100221A4801F0C7FD2849184807F0A5
:101820000BF900210122164801F0BEFD2449EBE727
:1018300001210022124801F0B7FD2249EEE7002203
:1018400001210F4801F0B0FD1F490D4807F0F4F8E1
:10185000002101220A4801F0A7FD1C49D4E700221B
:101860000121074801F0A0FD1949054807F0E4F8F7
:1018700000210122024801F097FD1649C4E700BF8C
:101880007802002007B2000813B2000830020020DE
:10189000F00100208201002074020020700200206C
:1018A00081010020E0040020BC000020A3B2000859
:1018B000B0B2000822B2000830B200083EB2000800
:1018C0004CB200085BB2000869B2000875B20008AB
:1018D00085B2000893B200082DE9F04FAD4887B0FB
:1018E00001F048FDAB4801F071FE01220F21A9482B
:1018F00001F05AFD0421A74801F032FD01220D211B
:10190000A44801F051FD0521A24801F029FD002263
:10191000A048114601F048FD9F499E4807F08CF809
:10192000012200219B4801F03FFD9C4E9C499948B3
:1019300007F082F800220521964801F035FD326853
:10194000984902A807F0E0FB02A9924807F078F84E
:101950000122954D11468F4801F026FD0DF1100B27
:101960002868FEF741FD02230622CDF800B007F0FB
:1019700001F95A460723302112F8010B202808BF2D
:1019800002F8011C013BF7D159468248DFF81CA23E
:1019900007F056F801220B217E4801F005FD9AF868
:1019A0000030002B30D082497A4807F049F80122F4
:1019B0000D21784801F0F8FC7E4B1B7833B37E494B
:1019C000744807F03DF87D4802F0D2FC7C4802F0F4
:1019D000CFFC00220C216F4801F0E6FC794B0A2273
:1019E00019686C4807F07BF800244FF0FF37764BFE
:1019F0001B7883B1042F0ED10023734A1370734AEE
:101A0000137007B0BDE8F08F7149CDE7052161483B
:101A100001F0A6FCD7E76F4801F01AFE81466E4838
:101A200001F016FE8046B9F1000F04D178B16B4B7E
:101A30001B68002B0BDD01211F2007F0D5F9674B38
:101A4000186807F04DFA00211F2007F0CDF95F4B11
:101A50001B7883B1012F0ED10134032C2BD0062C1F
:101A6000A8BF0024611C4B480122C9B201F09CFCB4
:101A7000484801F0B5FD544B1B78002B36D0022F9F
:101A80001BD0032F32D101220D21424801F08CFCE2
:101A9000484A137883F001031370002B73D0464932
:101AA0003C4806F0CDFF434B197801B10121C2201B
:101AB00007F09AF91AE00424D4E701220B213548F3
:101AC00001F072FC9AF8003083F001038AF80030CC
:101AD000002B52D036492F4806F0B2FF9AF800107A
:101AE00000294CD000213E4801F015FEB9F1000F4D
:101AF00000F0ED80B9F1100F0CBF013707F1FF378F
:101B0000002F45DB062FA8BF0027224801F05EFD0D
:101B1000002204211F4801F047FC32491D4806F00D
:101B20008FFF012200211B4801F03EFC2D4919487E
:101B300006F086FF01220A21164801F035FC2949EA
:101B4000144806F07DFF01220C21124801F02CFC04
:101B50002449104806F074FF00220B210D4801F0C3
:101B600023FC013F1F490B4806F06AFF042F3BD8B6
:101B7000DFE807F048607E986F001549ABE718482A
:101B800001F0ADFDB2E70521024801F0E9FB8AE76B
:101B90000527BAE778020020C0B200083400002010
:101BA000D0B20008DDB20008300000202C00002078
:101BB000DBB2000880010020E2B200083002002001
:101BC000F001002028000020820100208101002077
:101BD0000FB300087402002070020020BC00002037
:101BE000C000002073B200080421BF48002201F0A9
:101BF000DBFB0221BC4801F0B3FBB8F1000F7BD145
:101C0000002743E001220021B74801F0CDFB02216B
:101C1000B54801F0A5FB611CB3480122C9B201F02F
:101C2000C3FBB14801F0DCFCB8F1000F40F09E802E
:101C300001272BE00A21AC48012201F0B5FB02216B
:101C4000A94801F08DFBB8F1000F40F00381022795
:101C50001CE00B21A448002201F0A6FB0221A248AF
:101C600001F07EFBB8F1000F40F0FE8005270DE08B
:101C70000C219D48012201F097FB02219A4801F0B6
:101C80006FFBB8F1000F40F0458103270023974A0E
:101C900097481370974A137002F06AFB964802F057
:101CA00067FBA4E6904801220F2101F07DFB8E48DE
:101CB00001F096FCB8F1000F07D08B4801220F21EC
:101CC00001F072FB884801F08BFC0427DEE7B8F1D5
:101CD000000FDBD0052FD9D801A353F827F000BFA0
:101CE000F91C00086D1D0008551E0008151F00088E
:101CF000BB1C0008691E0008002205217A4801F07B
:101D000053FB42F20F733268B8F1100F0CBF0A3266
:101D10000A3A9A42A8BF1A46784922EAE27202A811
:101D2000326007F0F1F9704802A906F089FE9AF8CE
:101D30000030002B3FF464AF3068FEF7AFFF70490E
:101D400007462868FEF7FEFF01463846FEF7F2FE1A
:101D5000FFF7E4F96B4B0246186000216A4801F076
:101D6000FBFC0021684801F0D6FC49E701225E48EF
:101D7000114601F019FB022CD4BFC4F10201C4F1D9
:101D80000301B8F1100F4FF00A002F6848D1FFF798
:101D9000FFFB804689463846FEF726FB42464B4607
:101DA000FEF7C4F94FF00008FEF76EFE4146074605
:101DB000FFF766F900283FD0C5F800805B46022295
:101DC00005212868FFF73AFA5946474806F038FED9
:101DD000611C01224448C9B201F0E6FA424801F010
:101DE000FFFB9AF80030002B3FF422AF3068FEF77B
:101DF00055FF434907462868FEF7A4FF01463846C9
:101E0000FEF798FEFFF78AF93E4B02461860002164
:101E10003D4801F0A1FC00213B4801F07CFC07E7B4
:101E2000FFF7B6FB804689463846FEF7DDFA4246A4
:101E30004B46FEF779F9B5E73846FEF7D5FA28A301
:101E4000D3E90023FEF7B8FD08B92F60B6E72F4BA2
:101E50002B60B3E701220A21234801F0A5FA0221F1
:101E6000214801F07DFAF2E6294F0C2100221E489C
:101E700001F09AFA3968B8F1100F0CBF023102393B
:101E800008291DDC0129D8BF08210A22164839601B
:101E900006F025FE3B68023B062B3FF6E7AE01A2AB
:101EA00052F823F0C51E00086D1C0008D11E000862
:101EB0006D1C0008D51E00086D1C0008D91E000806
:101EC0000221E2E7002200210F4801F040FCCDE6AC
:101ED0000122F8E70222F6E70322F4E7AFF30080DD
:101EE00052B81E85EB3F8F4078020020820100200F
:101EF0003002002081010020F0010020DDB2000846
:101F00000024744924000020C00000205CFF7944B4
:101F10002800002001220C21034801F045FA02218B
:101F2000014801F01DFAB0E6780200200000000030
:101F30002DE9F04F964887B001F01CFA944801F063
:101F400045FB01220F21924801F02EFA042190480E
:101F500001F006FA00228E48114601F025FA8D495B
:101F60008B4806F069FD01220021894801F01CFA26
:101F7000DFF824A28949864806F05EFD002205218B
:101F8000834801F011FADAF80020854902A807F029
:101F9000BBF802A97E4806F053FD0122814D11468F
:101FA0007B4801F001FA2868FEF71EFA04AB06220E
:101FB0000093022306F0DEFD0723302104AA12F865
:101FC000010B202808BF02F8011C013BF7D104A92E
:101FD0006F48DFF8D4B106F033FD01220B216C48C5
:101FE00001F0E2F99BF8003023B37049684806F02D
:101FF00027FD6F4802F0BCF96E4E6F4802F0B8F949
:1020000000220C21624801F0CFF90A2231686048B1
:1020100006F065FD00244FF0FF37684B1B785BB17D
:10202000042F09D10023654A1370654A137007B065
:10203000BDE8F08F6349D9E7634801F009FB8146A9
:10204000624801F005FB8046B9F1000F04D178B178
:102050005F4B1B68002B0BDD01211F2006F0C4FE27
:102060005B4B186806F03CFF00211F2006F0BCFE09
:10207000534B1B7883B1012F0ED10134032C6FD049
:10208000062CA8BF0024611C41480122C9B201F0FE
:102090008BF93F4801F0A4FA484B1B78D3B1022FCB
:1020A00018D101220B213A4801F07EF99BF800304B
:1020B00083F001038BF80030002B53D03B493448A8
:1020C00006F0BEFC9BF8003002214248002B4BD0AA
:1020D00001F021FBB9F1000F00F0FE80B9F1100F03
:1020E0000CBF013707F1FF37002F40DB052FA8BFDA
:1020F0000027274801F06AFA00220421244801F051
:1021000053F93549224806F09BFC01220021204862
:1021100001F04AF930491E4806F092FC01220A21DA
:102120001B4801F041F92C49194806F089FC0122AD
:102130000C21174801F038F92749154806F080FCB2
:1021400000220B21124801F02FF9013F22491048CB
:1021500006F076FC032F0CD8DFE807F0407F96A549
:10216000042490E71749AAE701F0B9FAB2E7042777
:10217000BFE704210648002201F016F902210448B5
:1021800001F0EEF8B8F1000F40F0B880002797E0BA
:1021900078020020E4B2000820000020D0B200083D
:1021A000DDB200081C00002018000020DBB200088F
:1021B0003002002014000020F001002082010020E5
:1021C000810100200FB3000874020020700200207B
:1021D000BC000020C000002073B2000801220021D2
:1021E000AF4801F0E1F80221AD4801F0B9F8611CF7
:1021F000AB480122C9B201F0D7F8A94801F0F0F9C3
:10220000B8F1000F00F0FE800122A548114601F050
:10221000CBF8022CD4BFC4F10201C4F10301B8F120
:10222000100F4FF00A002F6840F0A580FFF7B0F9BB
:10223000804689463846FEF7D7F842464B46FDF7BA
:1022400075FFFEF721FC00210746FEF719FF002865
:1022500000F09D8000232B60A4E00A219048012219
:1022600001F0A2F802218E4801F07AF8B8F1000FCF
:1022700008D00A218A48012201F096F802218848F4
:1022800001F06EF802271BE00B218548002201F0C7
:102290008BF80221824801F063F8B8F1000F40F09A
:1022A000B58003270CE07E4801220F2101F07CF865
:1022B0007B4801F095F9B8F1000F40F0E280042767
:1022C0000023784A78481370784A137002F050F867
:1022D000774802F04DF8A0E6B8F1000FF0D0042FD7
:1022E000EED801A353F827F0FD22000809220008C8
:1022F000732200080D240008832400080022052111
:10230000674801F051F842F20F73DAF80020B8F193
:10231000100F0CBF0A320A3A9A42A8BF1A46654902
:1023200022EAE27202A8CAF8002006F0EDFE5C483C
:1023300002A906F085FB9BF80030002B3FF426AF86
:10234000DAF80000FEF7AAFC5B4907462868FEF7AA
:10235000F9FC01463846FEF7EDFBFEF7DFFE574B72
:10236000024618600221564801F0F6F9022154484D
:1023700001F0D1F90AE7FFF70BF9804689463846A4
:10238000FEF732F842464B46FDF7CEFE59E7384697
:10239000FEF72AF840A3D3E90023FEF70DFB00283F
:1023A00032D12F6004AB022205212868FEF746FFD8
:1023B00004A93B4806F044FB611C01223848C9B21D
:1023C00000F0F2FF364801F00BF99BF80030CBB17A
:1023D000DAF80000FEF762FC374907462868FEF786
:1023E000B1FC01463846FEF7A5FBFEF797FE334BDE
:1023F000024602211860324801F0AEF9022130484D
:1024000001F089F901275BE72E4B24E70C2100221C
:10241000234800F0C9FF3168B8F1100F0CBF02313A
:10242000023908291EDC0129D8BF08210A221C48CC
:10243000316006F054FB3368023B062B3FF631AFA8
:1024400001A252F823F000BF69240008A32200086B
:102450006F240008A322000873240008A3220008A8
:102460007F2400080221E1E70022022103E001228B
:10247000FBE702221146124801F069F911E7032235
:10248000F3E701220F21064800F08EFF044801F017
:10249000A7F814E7AFF3008052B81E85EB3F8F40DA
:1024A00078020020820100203002002081010020FB
:1024B000F0010020DDB20008002474491000002063
:1024C000C00000205CFF79442DE9F04FB24887B08E
:1024D00000F050FFB04801F079F801220F21AE481A
:1024E00000F062FF0421AC4800F03AFF0022AA4845
:1024F000114600F059FFA94EA949A74806F0A0FAD5
:1025000000220921A44800F04FFF0A223168A248A6
:1025100006F0E5FAA349A04806F092FA0122092143
:102520009D4800F041FFDFF880A2A0499A4806F0DC
:1025300087FA00220E21984800F036FF9AF8003002
:10254000002B49D09A49944806F07AFA9AF800305C
:10255000984D002B42D098492868FEF7F3FBFEF710
:10256000DDFD964B0146186032680020FEF7AAFF99
:1025700001228948114600F017FF2868FDF734FF53
:1025800003AB08220093032306F0F4FA0924302257
:1025900003AB13F8011B202908BF03F8012C013CF1
:1025A000F7D103A97C4806F04BFA854801F0E0FE1C
:1025B000844801F0DDFE4FF0FF37DFF80CB29BF8E6
:1025C000003083B1032F0ED10023804A8BF80030F6
:1025D000137007B0BDE8F08F7D49B4E701210C20EE
:1025E00006F002FCC4E77B4801F032F881467A48E5
:1025F00001F02EF88046B9F1000F04D178B1774B85
:102600001B68002B0BDD01211F2006F0EDFB734B37
:10261000186806F065FC00211F2006F0E5FB9BF81A
:1026200000301BB3022F21D100220E215A4800F0A6
:10263000BBFE9AF8003083F001038AF80030002BCB
:102640006AD05B49544806F0FBF99AF80030002B39
:1026500064D059492868FEF775FBFEF75FFD574BBC
:102660000146186032680020FEF72CFF574B1B789C
:1026700083B1012F0ED10134042C54D0082CA8BFF3
:102680000024611C44480122C9B200F08DFE42487A
:1026900000F0A6FFB9F1000F00F0A480B9F1100F0F
:1026A0000CBF013707F1FF37002F3EDB042FA8BF17
:1026B0000027394800F08AFF01220021364800F047
:1026C00073FE4749344806F0BBF900220D21324819
:1026D00000F06AFE4249304806F0B2F900220821B3
:1026E0002D4800F061FE3E492B4806F0A9F9022F63
:1026F00048D0032F1BD0012F2DD0082126480022BF
:1027000000F052FE0221244800F02AFEB8F1000F2A
:1027100040F09580002712E02D4993E701210C201D
:1027200006F062FBA2E70524ABE70327C1E71A48DE
:1027300001220F2100F038FE174800F051FF00235E
:10274000224A1F488BF80030137001F011FE1D481B
:1027500001F00EFE31E73A4600210F4800F024FE5A
:1027600002210D4800F0FCFD611C0B483A46C9B23D
:1027700000F01AFE084800F033FFB8F1000F37D11F
:102780000127DCE700220D21034800F00DFE394649
:10279000014800F0E5FDD2E7780200200C0000209F
:1027A000F4B20008FDB2000878010020FFB2000872
:1027B000DBB200080800002000007A447C01002001
:1027C00030020020F0010020820100208101002061
:1027D0000FB300087402002070020020BC0000202B
:1027E00073B20008B8F1000FA9D047B3012FA6D1EA
:1027F00001225348114600F0D7FD032CD4BFC4F189
:102800000301C4F10401B8F1100F4FF00A002F6862
:1028100047D1FEF7BDFE804689463846FDF7E4FD08
:1028200042464B46FDF782FCFEF72EF90021074693
:10283000FEF726FC002840D000232B6047E0002252
:1028400009213F4800F0B0FD3268B8F1100F0CBF0D
:10285000013202F1FF32012A1CDD632AA8BF0022E7
:10286000384902A8326006F04FFC354802A906F04C
:10287000E7F89AF800307BB133492868FEF762FA2E
:10288000FEF74CFC314B0146186032680020FEF721
:1028900019FE3FE76222E3E701210C2006F0A4FACB
:1028A00038E7FEF775FE804689463846FDF79CFD01
:1028B00042464B46FDF738FCB6E73846FDF794FD37
:1028C0001DA3D3E90023FEF777F868BB2F602868C3
:1028D000FDF78AFD03AB07220093032306F04AF9B4
:1028E00003AB032207212868FEF7A8FC03A91448BC
:1028F00006F0A6F8611C01221148C9B200F054FD8F
:102900000F4800F06DFE9AF800307BB10E49286840
:10291000FEF718FAFEF702FC0C4B0146186032680D
:102920000020FEF7CFFD2BE7094B86E701210C20A5
:1029300006F05AFA24E700BF5A643BDFFF87C34022
:102940007802002003B3000800007A447C010020D4
:10295000FF3F1C46000000002DE9F04FB24887B051
:1029600000F008FDB04800F031FE01220F21AE4812
:1029700000F01AFD0421AC4800F0F2FC0022AA4845
:10298000114600F011FDA94EA949A74806F058F8D4
:1029900000220921A44800F007FD0A223168A2485C
:1029A00006F09DF8A349A04806F04AF80122092143
:1029B0009D4800F0F9FCDFF880A2A0499A4806F093
:1029C0003FF800220E21984800F0EEFC9AF8003003
:1029D000002B49D09A49944806F032F89AF8003012
:1029E000984D002B42D098492868FEF7ABF9FEF7C6
:1029F00095FB964B0146186032680120FEF762FD98
:102A000001228948114600F0CFFC2868FDF7ECFC54
:102A100003AB08220093032306F0ACF8092430220C
:102A200003AB13F8011B202908BF03F8012C013C5C
:102A3000F7D103A97C4806F003F8854801F098FC1B
:102A4000844801F095FC4FF0FF37DFF80CB29BF89B
:102A5000003083B1032F0ED10023804A8BF8003061
:102A6000137007B0BDE8F08F7D49B4E70121084637
:102A700006F0BAF9C4E77B4800F0EAFD81467A48DF
:102A800000F0E6FD8046B9F1000F04D178B1774B34
:102A90001B68002B0BDD01211F2006F0A5F9734BED
:102AA000186806F01DFA00211F2006F09DF99BF81A
:102AB00000301BB3022F21D100220E215A4800F012
:102AC00073FC9AF8003083F001038AF80030002B81
:102AD0006AD05B49544805F0B3FF9AF80030002BE8
:102AE00064D059492868FEF72DF9FEF717FB574BBC
:102AF0000146186032680120FEF7E4FC574B1B7852
:102B000083B1012F0ED10134042C54D0082CA8BF5E
:102B10000024611C44480122C9B200F045FC42482F
:102B200000F05EFDB9F1000F00F0A480B9F1100FC4
:102B30000CBF013707F1FF37002F3EDB042FA8BF82
:102B40000027394800F042FD01220021364800F0FC
:102B50002BFC4749344805F073FF00220D21324811
:102B600000F022FC4249304805F06AFF00220821AB
:102B70002D4800F019FC3E492B4805F061FF022F5B
:102B800048D0032F1BD0012F2DD00821264800222A
:102B900000F00AFC0221244800F0E2FBB8F1000F2B
:102BA00040F09580002712E02D4993E70121084667
:102BB00006F01AF9A2E70524ABE70327C1E71A4894
:102BC00001220F2100F0F0FB174800F009FD00235F
:102BD000224A1F488BF80030137001F0C9FB1D48D2
:102BE00001F0C6FB31E73A4600210F4800F0DCFB5C
:102BF00002210D4800F0B4FB611C0B483A46C9B2F3
:102C000000F0D2FB084800F0EBFCB8F1000F37D120
:102C10000127DCE700220D21034800F0C5FB3946FF
:102C2000014800F09DFBD2E778020020040000205C
:102C300008B30008FDB2000870010020FFB20008D0
:102C4000DBB200080000002000007A44740100207C
:102C500030020020F00100208201002081010020CC
:102C60000FB300087402002070020020BC00002096
:102C700073B20008B8F1000FA9D047B3012FA6D155
:102C800001225348114600F08FFB032CD4BFC4F13E
:102C90000301C4F10401B8F1100F4FF00A002F68CE
:102CA00047D1FEF775FC804689463846FDF79CFB08
:102CB00042464B46FDF73AFAFDF7E6FE002107468D
:102CC000FEF7DEF9002840D000232B6047E0002209
:102CD00009213F4800F068FB3268B8F1100F0CBFC3
:102CE000013202F1FF32012A1CDD632AA8BF002253
:102CF000384902A8326006F007FA354802A905F003
:102D00009FFE9AF800307BB133492868FEF71AF825
:102D1000FEF704FA314B0146186032680120FEF7D5
:102D2000D1FB3FE76222E3E70121084606F05CF8A9
:102D300038E7FEF72DFC804689463846FDF754FB00
:102D400042464B46FDF7F0F9B6E73846FDF74CFB37
:102D50001DA3D3E90023FDF72FFE68BB2F60286871
:102D6000FDF742FB03AB07220093032305F002FFAC
:102D700003AB032207212868FEF760FA03A9144871
:102D800005F05EFE611C01221148C9B200F00CFB87
:102D90000F4800F025FC9AF800307BB10E492868F6
:102DA000FDF7D0FFFEF7BAF90C4B01461860326808
:102DB0000120FEF787FB2BE7094B86E70121084638
:102DC00006F012F824E700BF5A643BDFFF87C340D8
:102DD0007802002003B3000800007A447401002048
:102DE000FF3F1C4610B5104800F0C4FAFEF756FC31
:102DF00004460D4800F0BEFA032C13D8DFE804F0B7
:102E000002060A0EBDE81040FEF766BDBDE81040A0
:102E1000FFF78EB8BDE81040FFF756BBBDE8104085
:102E2000FFF79ABD10BD00BF7802002038B51546E7
:102E300000F108040A462046182100F0B1F92046A6
:102E4000EAB2192100F0ACF920462A0A1A2100F052
:102E5000A7F92046BDE838400122252100F0A0B99D
:102E60002DE9F8439946424B074699420C461546D0
:102E700069D9404B994269D93F4B4FF000089942BC
:102E800069D8012206213846FFF7D0FFB8F1000FBC
:102E90005FD04FF4A84201213846FFF7C7FF88F002
:102EA000010676B2A6F10F01C6F10F0306F1110279
:102EB00004FA01F124FA03F3194304FA02F0B8F119
:102EC000000F05D0031841EB0102181841EB020175
:102ED00025A3D3E90023FEF741F9044682B2072176
:102EE0003846FFF7A3FF220A02F47F420821384642
:102EF00042F00802FFF79AFFB9F1020F2FD106F155
:102F00000E03A6F11201C6F1120605FA01F125FA27
:102F100006F6314305FA03F0B8F1000F05D00318A7
:102F200041EB0102181841EB02010FA3D3E9002382
:102F3000FEF714F9C20002F4FF623846BDE8F84318
:102F40000921FFF773BF4FF001089AE74FF000081F
:102F50009FE74FF00108C8F10006F6B2A1E7002292
:102F6000EBE700BFAFF3008080BA8C0100000000E7
:102F700000A3E1110084D7170046C3230378032B75
:102F800004D178220221083000F00AB97047037892
:102F900010B5032B1CD100F10804204680222F21FC
:102FA00000F0FEF82046CA22352100F0F9F820464C
:102FB000EB22362100F0F4F837222046114600F0CB
:102FC000EFF82046BDE810408222382100F0E8B832
:102FD00010BD037810B5032B17D100F1080420466B
:102FE0001022122100F0DCF820460022122100F00D
:102FF000D7F820460722242100F0D2F82046BDE869
:10300000104020221D2100F0CBB810BD38B5037848
:103010001546032B18D100F108040A462046182152
:1030200000F0BEF82046EAB2192100F0B9F82046B7
:10303000C5F307221A2100F0B3F82046BDE8384056
:103040000122252100F0ACB838BD01223D21083015
:1030500000F0A6B802220D21083000F0A1B82DE939
:10306000F047044600F108052846884617461E46E4
:10307000DDF820909DF824A000F030F8284600F0FC
:103080009FF82046FFF7E1FF022005F029FF2046C8
:10309000FFF774FF2046FFF77AFF2046FFF799FFFE
:1030A0000025BD42E9B212D153464A463146204678
:1030B000FFF7D6FE2046FFF7CDFF0021102005F0D8
:1030C00093FEBDE8F0470121102005F02FBE58F80F
:1030D00025202046FFF79AFF0135E2E708B50121D8
:1030E0000F2005F081FE01210F2005F01FFE0121B8
:1030F000102005F079FEBDE808400121102005F000
:1031000015BE00002DE9F0410F200C46012105F00D
:103110006BFE0121102005F009FE0021102005F0B2
:1031200063FE08251B4E1C4F01210F2005F05CFE9D
:10313000DFF8688023064CBF01210021102005F034
:1031400053FED8F800307168B3FBF7F35B00726888
:10315000521A9342FBDC00210F2005F045FED8F8FF
:1031600000307168B3FBF7F35B007268521A934248
:10317000FBDC013D640015F0FF05E4B2D4D1012170
:103180000F2005F031FE2946BDE8F041102005F082
:103190002BBE00BF001000E040420F00FC000020EA
:1031A00038B50446154601F0BF0141F08001FFF734
:1031B000A9FF29462046BDE83840FFF7A3BF00001D
:1031C0002DE9F041012105460F2005F00DFE0121FA
:1031D000102005F0ABFD0021102005F005FE202495
:1031E000194F1A4EDFF8688001210F2005F0FCFD11
:1031F000D8F800307968B3FBF6F35B007A68521AAE
:103200009342FBDC00210F2005F0EEFDD8F80030E2
:103210007968B3FBF6F35B007A68521A9342FBDCE1
:10322000013C14F0FF04DDD101210F2005F0DCFD8D
:103230002146102005F0D8FD22462846BDE8F04181
:103240000D21FFF7ADBF00BF001000E040420F00AE
:10325000FC000020002070477047000070B5174D3B
:1032600000210446807A05F0BFFD2B68144A154EF4
:10327000B3FBF2F2716873685B1A9A42FBDC0121BE
:10328000A07A05F0B1FD2B680D4A7168B3FBF2F22C
:103290000C4E73685B1A9A42FBDC0021A07A05F0A1
:1032A000A3FD074A2B687168B3FBF2F36422534312
:1032B00004484268521A9342FBDC70BDFC000020B7
:1032C00040420F00001000E0F8B504460E4600250D
:1032D00000F10A0746FA05F117F8010F01F00101A4
:1032E000013505F081FD042DF4D12046BDE8F840FC
:1032F000FFF7B4BFF8B504460E46002500F10A07F3
:1033000046FA05F117F8010F01F00101013505F04A
:103310006BFD082DF4D12046BDE8F840FFF79EBFB5
:1033200038B504460D46007A114605F05DFD607A19
:10333000FF2802D0002105F057FDE37CDB0605D510
:1033400029462046BDE83840FFF7D4BF204629096A
:10335000FFF7BAFF29462046BDE83840FFF7B4BF63
:1033600008B50122FFF7DCFF012008BD0022FFF7AE
:10337000D7BF0000012108B5FFF7F8FF074B084A47
:103380001B680849B3FBF2F34FF4FA6253434868F1
:103390004A68121A9342FBDC08BD00BFFC00002003
:1033A00040420F00001000E0032A28BF032208B5A6
:1033B000C37D93429CBF03F1FF33DAB20244137E14
:1033C000194461F07F01C9B2FFF7D0FF08BD08B50D
:1033D000017D41F00402027541F00C01FFF7C6FFC8
:1033E00008BD000070B50446012A88BFC07CA176E4
:1033F00084BF40F00800E0744FF480404031E27533
:103400002083E1762BB1012A02BFE37C43F0040361
:10341000E374207A012105F089FC607AFF2802D04C
:10342000012105F083FC254601216FF0090615F8FE
:103430000A0F05F07BFC361BE37C13F0100F0CBF6A
:103440000422082273199A426ADC4D4D4D4A2B68BA
:103450004D49B3FBF2F34CF25032534348684A688B
:10346000121A9342FBDC0021207A05F0BDFCA07A01
:10347000002105F0B9FC607AFF2802D0002105F098
:10348000B3FCE17C404E11F0100F4FD103212046D8
:10349000FFF71AFF3B4A2B687168B3FBF2F341F266
:1034A000941253437268521A9342FBDC0321204664
:1034B000FFF70AFF334A2B687168B3FBF2F341F25E
:1034C00094125343304E7268521A9342FBDC03212C
:1034D0002046FFF7F9FE2B4A2B687168B3FBF2F325
:1034E0009622534328484268521A9342FBDC022139
:1034F0002046FFF7E9FEE17C204641F02001FFF77E
:1035000035FF042320462375FFF761FF2046FFF7B0
:1035100031FF0223062120466375FFF727FF70BDA8
:10352000012115F8010F05F001FC85E741F02001AC
:103530002046FFF71BFF134A2B687168B3FBF2F3B9
:1035400041F2941253437268521A9342FBDCE17CBD
:10355000204641F02001FFF709FF0A4A2B687168F5
:10356000B3FBF2F39622534307484268521A934240
:10357000FBDCE17C204641F02001FFF7F7FEBAE7D3
:10358000FC00002040420F00001000E070B51D4616
:1035900001720023FF21044682729DF810200A4E1A
:1035A00002739DF81420436042739DF81820066052
:1035B0004172C5728273C373036101221021FFF748
:1035C00011FF204670BD00BF60B3000808B5017D43
:1035D00001F0FD01017541F00801FFF7C7FE08BDCC
:1035E00008B5017D41F00202027541F00A01FFF7C2
:1035F000BDFE08BDC90001F0380170B541F04001C1
:1036000014460546FFF7B2FE661E07342B6816F80F
:10361000011F28461B689847A642F7D170BD8270EB
:10362000002241700270C270704770B504461646A1
:103630000D46407841B1022105F078FB0221A078C7
:1036400005F074FBE67070BD05F070FB2946F6E7E7
:10365000F8B50446C678807805F002FC0746607825
:1036600094F9035005F0FCFB22787E404540064B60
:1036700002F00F0245EA4605EDB203EB8203585D06
:10368000207000F03000F8BD70B30008F8B50746B0
:1036900016460D46094C6021204600F093F9394644
:1036A000204600F0E8F932462946204600F004FAA8
:1036B0002046BDE8F84000F0ABBA00BF94020020FD
:1036C00007B501228DF807100DF10701FFF7DEFFA6
:1036D00003B05DF804FBA021B120FFF7F1BF38B5BE
:1036E000044601F110000D46C0B28021FFF7E8FF4B
:1036F00000232C44637538BD10B504460021FFF744
:10370000EEFF20460121FFF7EAFF2046BDE810400A
:103710000221FFF7E4BF70B50C1E14BF6C214C21D1
:103720000619337A0546194404F11000C9B2C0B233
:10373000FFF7C6FF012C06D102212846FFF7CFFF75
:103740000123737570BD022CFAD10121F5E74318EE
:103750001A72FFF7E0BF00002DE9FF41544C054607
:10376000B4FBF2F40123B4F5617F16D85A43E007A5
:1037700048BF04F1FF34102B04FB02F200F08B80F1
:103780007DD8581EC6B2072E0CD807280AD8DFE805
:1037900000F08408097E090909805B00DBB2640837
:1037A000E1E71023686804F10076B2FBF0F700FB54
:1037B000172252094FEA501CD201B2FBFCF80CFB55
:1037C00018225FFA87FEA8F5007707EBCE178DF871
:1037D00001C04FEA503EC7F3014C400C8DF802C0C7
:1037E0008DF804704FEA172C20F00F00C2F3034746
:1037F00038438DF80500081E18BF012052BAADF8F5
:10380000062005EB41029789043EC000A7424FEA1B
:10381000C6168DF800E08DF803C000F11A000D44C3
:1038200002D1AF7C9F423ED094810022CDE902229A
:103830000122042CAB7404BF43F00C03DBB28DF8FF
:103840000920C6F301421343C9000822CFB28DF804
:103850000A306946330A8DF80B308DF80C60FFF79B
:1038600015FF082207F12A000DEB020100F0FE000F
:10387000FFF70CFFFFF72FFF04B0BDE8F081402BEE
:103880000DD0802B0DD0202B08BF50238AE720239A
:1038900088E7302386E7402384E7002382E760231C
:1038A00080E770237EE708226946FFF7EFFEE3E733
:1038B00000E9A43510B5044660210D4800F082F8F7
:1038C00021460B4800F0D7F8094800F0A1F9012281
:1038D0006021074800F097F9054800F026F820B16C
:1038E000034800F026F800B210BD4FF0FF30FAE7B1
:1038F0009402002010B50446C0E9001100210848D8
:1039000000F04CFA9520FFF7D5FF00F07F019520DD
:10391000FFF7D6FE2046BDE81040FFF7EDBE00BF22
:10392000940200204168FFF7E5BF028BC08A101A9D
:1039300070470346C28A018B914281BF0169885C4E
:103940000132DA8298BF4FF0FF307047028BC38A92
:103950009A4286BF0269D05C4FF0FF307047806D9D
:10396000D0F8DC302BB10023D43020F8B23CC3684F
:103970001847704738B50446283000F011FBE0695D
:1039800018B105F0D5FA0023E361002520692584EC
:1039900010B105F0CDFA2561A58238BD38B50546D0
:1039A0000446074B45F8D43BFFF7E4FF2846FDF7F4
:1039B0003BFC04F1C400FDF737FC204638BD00BFD6
:1039C00094B300080123994080F8243000238176C5
:1039D0004384704738B5838A05468B420C4609D22A
:1039E000202938BF20240069214605F057FB10B17B
:1039F0002861AC8238BDFEE773B5846D0546D4F806
:103A0000CC30866EE3B1E28A238B9A4218D33146DA
:103A10002046FFF7DFFF3246206905F1740105F00B
:103A200009FC0023E382D4F8CC30268301960BB93D
:103A300007F0CAFBD4F8D03001A904F1C4009847BC
:103A400002B070BDB1F5806F70B505460C4610D858
:103A5000038C99420AD920290E4638BF2026C06916
:103A6000314605F01BFB18B1E8612E84204670BD7D
:103A7000FEE70024FAE713B590F8243004468DF8E9
:103A800007107BB1418C0131FFF7DCFF40B1012011
:103A9000638C9DF80710E269D154638C0133638411
:103AA00002B010BD01220DF10701283000F0B6FA76
:103AB000B0FA80F04009F3E770B590F8243004467E
:103AC0000E46154693B1418C1144FFF7BBFF10B968
:103AD0000025284670BD638CE0692A4618443146AB
:103AE00005F0A8FB638C2B446384F2E792B2283084
:103AF00000F094FA0028EBD1EBE70346006918B117
:103B000000219A8A05F03ABB70470346C06918B194
:103B100000211A8C05F032BB704738B50446D1B984
:103B20004FF42A03A36594F8BE30012B16D1638CA1
:103B3000E269A17E04F1280000F0F0FA042828BF11
:103B4000042045B22046FFF7E0FF0023638484F899
:103B50002430E8B238BD4FF02A43E3E70425F8E704
:103B60002DE9F04790F8BEA00446BAF1010F0F46C8
:103B7000164698469DF820509DF8249038D111465D
:103B80007F00FFF727FFFFB2CDB1032D28BF03252C
:103B90000023013DEDB284F824A0A7766384ED00F4
:103BA000236828FA05F120461B68C9B2083D9847EA
:103BB00015F1080FF4D100212046FFF7AEFFB9F14F
:103BC000000F12D14FF42A03A36539463346226908
:103BD00004F1280000F03CFA002818BF002600235A
:103BE0002683E3823046BDE8F0874FF02A43EBE7B7
:103BF0000026F7E707B5019300230093FFF7B0FF16
:103C000003B05DF804FB0123D2B2C9B2FFF7F2BFE3
:103C10000121FFF782BF38B500250446C582058320
:103C2000FFF76BFF20466584FFF76FFF38BD00008C
:103C3000F8B50446D0F8840005F05EF8002105F0E0
:103C400075F8D4F88420C2F30313042B47D8274D0A
:103C5000274E55F8233002F00F029B6856F82220B9
:103C6000DB4303EA12239BB2002B3ED0D4F888003A
:103C700005F042F8012105F059F8D4F888001D4BF1
:103C8000C0F3031104291B682CD81B4C1427B3FB69
:103C9000F4F30A2400F00F0256F822206343174C75
:103CA000C2F30F2255F821C0CCF81420D4F804E058
:103CB0006668A6EB0E06B342FADCCCF81020D4F806
:103CC00004C06668A6EB0C06B342FADC013FE9D1FA
:103CD00005F012F83946BDE8F84005F027B8002392
:103CE0009B68FFDE00235B61FBE7F8BDE00000207E
:103CF000D8B30008FC00002040420F00001000E094
:103D00002DE9F04100260446C68206831F460D4673
:103D10009046FFF7F2FE20466684A676FFF7F5FE92
:103D2000D4F8DC30C4F8804033B104F1D40103226C
:103D300008469847C4E93766002384F824306B00AE
:103D400084F825306B1E5D425D41204684F8BE50EC
:103D500084F8BF8084F8C07004F12805FFF768FF7D
:103D600094F825304FF480422846094900F05CF869
:103D700094F8BE304BB92846064900F027FA284689
:103D8000BDE8F041044900F01ABABDE8F08100BF77
:103D9000A08601005F390008F93900080A460023AF
:103DA0000121FFF7ADBF0022C0E90022C0E90222D5
:103DB00070470022C0E90022C0E9022270470000DB
:103DC00038B500254FF47A730446C0E901530E4B11
:103DD00040F8C43BFFF7E7FF04F1D400FFF7E9FF29
:103DE0009C22294604F1280005F0C8F9074B20461B
:103DF0009A68C4F88420DB68E561C4F888302584BB
:103E00002561A58238BD00BF94B30008ACB7000897
:103E10000148FFF7D5BF00BF940200200148FFF71B
:103E2000BDBD00BF940200202DE9F3410D461746A9
:103E300098460446002800F09F805149C06D04F068
:103E400003F850490646206E03F0FEFF0146002E9F
:103E500000F09280002800F08F80304604F01BF8BC
:103E60002060002800F08880474B261D984262D1D0
:103E700003F5DE33DA6942F40012DA61DA6902F43A
:103E800000120092009A1A6942F400121A611A692B
:103E900022F400121A6142F21F03A4F864303B4B73
:103EA0001E603849206E03F0B7FFE06D344903F01F
:103EB000B3FF374823688542636006D93548854299
:103EC00003D93548854288BF0020314B02219D42ED
:103ED00094BF00250125AD03C4E90358002594F8DB
:103EE00097302A465B1B18BF01239B01236294F87D
:103EF0009830A0605B1B18BF0123DB01636294F95B
:103F00006400C4E90575E56184F8415000F0EEFAFB
:103F100094F9640000F01AFB2A46022194F9650026
:103F200000F0E4FA94F9650000F010FB304600F070
:103F30001DFCE8B1FEE7194B9842B2D103F5DC3322
:103F4000DA6942F48002DA61DA6902F480020192ED
:103F5000019A1A6942F480021A611A6922F48002F5
:103F60001A6142F22123A4F86430084B5E6098E79E
:103F70000223A06684F8953002B0BDE8F08100BF4E
:103F800054B7000824B7000800540040780300200C
:103F9000A0860100801A060040420F000058004031
:103FA00010B5044690F9640000F0DEFA94F965005B
:103FB00000F0DAFA201D00F082FC0321206E03F0ED
:103FC0006BFE0321E06D03F067FE2368104A934205
:103FD0000DD1104B1A6942F400121A611A6922F4C9
:103FE00000121A61DA6922F40012DA6110BD0A4A7D
:103FF0009342FBD1074B1A6942F480021A611A6995
:1040000022F480021A61DA6922F48002EDE700BF2F
:10401000005400400010024000580040202A30B5F3
:1040200014D800239CB2A24207D890F894301344CD
:10403000DBB280F89430002030BD90F89440CD5C25
:104040001C44044484F874500133EBE70120F3E787
:104050002DE9F34705460F469046994600F02EFAA3
:1040600000240646D5F830A004354B464246394672
:104070002846CDF800A000F057FD022806D100F038
:104080001DFA841B642CF0D906201FE008BB00F049
:1040900015FA0646284601F0ADFC202809D0632C0D
:1040A00007D800F00BFA841B284601F0A6FC002874
:1040B000F0D0284601F0A1FC632C0CD882060AD46B
:1040C00043070AD4003818BF0120800002B0BDE8C1
:1040D000F0870420FAE70520F8E70320F6E710B59B
:1040E00064230446043000F003FC022810D00328A7
:1040F00006D090B194F84130202B18BF042004E082
:1041000094F84130202B18BF052008BF022004E09E
:1041100094F84130202B18BF062010BD2DE9F3473D
:1041200004460E4691461F4600F0C8F980463FB946
:1041300001223146204602B0BDE8F047FFF7CFBF6D
:104140000025D4F830A004343B464A463146204688
:10415000CDF800A000F080FC022807D100F0AEF9F5
:10416000A0EB0805642DEFD906201FE008BB00F086
:10417000A5F90646204601F03DFC202809D0632D14
:1041800007D800F09BF9851B204601F036FC00287B
:10419000F0D0204601F031FC632D0CD882060AD401
:1041A00043070AD4003818BF0120800002B0BDE8E0
:1041B000F0870420FAE70520F8E70320F6E720B1AE
:1041C00019B1C166043000F0ABBD704720B119B120
:1041D0000167043000F0A4BD704770B590F89130CD
:1041E0000446012B0D46A0F1040609D1436E3BB1F4
:1041F000836E30469847022384F89130002363662B
:104200008DB9E36E84F891501BB1304684F890501C
:104210009847204694F8902004F170012023BDE8CF
:10422000704000F007BD00230122636684F89120EE
:10423000616E2046743131440423BDE8704000F0C3
:1042400034BD10B590F891300446012B04D1436E73
:1042500013B1836E04389847022384F89130002309
:1042600020466366BDE8104000F05ABD436E1F2B28
:10427000DEBF436E0133436690F89130012BDAB212
:1042800005D1416E04237031014400F00EBD70472A
:10429000002380F89030704790F892300BB900F00E
:1042A0003FBD7047014B186800F0BABE780300208C
:1042B000014B186801F0FEBA78030020014B5868E2
:1042C00000F0AEBE78030020014B586801F0F2BA4E
:1042D00078030020F8B504461F4632230025164611
:1042E000A37096224FF47A7308462170C4E9012323
:1042F0007100C4E90455C4E90655C4E90855C4E988
:104300000A55A56304F012FD86F00106677084F873
:10431000305084F83C50204626736563F8BD8161B7
:10432000704738B590F8313004460D469BB10123F3
:1043300080F8303023690BB12046984794F831302B
:104340003BB994F83030032B03D063690BB120469E
:104350009847A56338BD90F83030032BEAD002238C
:1043600080F8303090F83C30013380F83C30E1E7A1
:1043700070B5044604F0B2FD94F830300546032BC6
:1043800003D1A36A0BB120469847A66BA378AE1B56
:10439000B34246D8207804F063FD237BC11A4A4219
:1043A0004A4184F8312094F83020032A39D8DFE8D4
:1043B00002F0020B1939984233D165632946204631
:1043C000BDE87040FFF7ADBF9842F7D1A368B34294
:1043D00027D8032384F83030636A13B32046BDE83E
:1043E000704018479842E9D06368B34219D8236AED
:1043F0000BB12046984794F83C30012B03D1A369B8
:104400004BB12046984794F83C30022B03D1E36926
:104410000BB120469847002384F83030636384F85A
:104420003C3070BD9842FCD029462046FFF779FF0A
:10443000E36AEDE77047000038B50E4B05461A7881
:104440004FF47A73B3FBF2F30B4A1068B0FBF3F04E
:1044500000F09CF8044658B90F2D09D802462946A9
:104460004FF0FF3000F042F82046044B1D6038BD8D
:104470000120FCE7D8000020FC000020DC00002028
:10448000074A08B51368032043F01003136000F0D7
:104490001BF80020FFF7D0FFFFF7CCFF002008BD7E
:1044A00000200240034A044B11681B780B44136040
:1044B000704700BF80030020D8000020014B18681F
:1044C000704700BF8003002007490302CA6803F455
:1044D000E06322F4E0621204120C134343F0BF6362
:1044E00043F40033CB60704700ED00E0154B30B56E
:1044F000DC68C4F30224C4F10703251D042B28BF84
:104500000423062D4FF0FF3594BF0024033C05FA29
:1045100003F321EA0303A54022EA0502A340002891
:1045200043EA0203ACBF00F16040074A4FEA0313BD
:10453000DBB2ABBF00F5614000F00F0080F8003344
:10454000135430BD00ED00E014ED00E0002807DB5F
:1045500001234109034A00F01F00834042F8213043
:10456000704700BF00E100E000280CDB0122064993
:10457000430900F01F008240203341F82320BFF39D
:104580004F8FBFF36F8F704700E100E00138B0F14B
:10459000807F0BD24FF0E023F021054A586182F86A
:1045A00023100020072298611A617047012070478C
:1045B00000ED00E0002808DB01224309034900F078
:1045C0001F008240603341F82320704700E100E083
:1045D000704708B5FFF7FCFF08BD704710B50446EB
:1045E00050B1437903F0FF0213B90271FFF7F5FFF1
:1045F00001230020637110BD0120FCE790F8212009
:104600000346022A06D0042282630120002283F896
:10461000202070470268C06B116821F00E01116004
:10462000116821F00101116001211A6C01FA02F2F6
:104630004260002083F82110E8E7000008B590F8F8
:104640002130022B03D004238363012008BD0368BB
:104650001A6822F00E021A601A6822F001021A602B
:10466000174A93421FD0143293421ED01432934201
:104670001DD0143293421DD0143293421DD01432F7
:10468000934214BF4FF080734FF480130D4A536070
:10469000012380F82130002380F82030436B03B1E0
:1046A00098470020D2E70123F0E71023EEE74FF40C
:1046B0008073EBE74FF48053E8E74FF48033E5E78E
:1046C000080002400000024090F8210070470000FE
:1046D000044A08B55169014202D0506103F0EEF876
:1046E00008BD00BF000401402DE9F84606460F460C
:1046F00091461D464FEA114A3368BAF1010F0CBFCB
:104700005C699C6927EA0404A4B2B4FA84F46409DD
:10471000A14501D0002025E06A1CEED0FFF7CEFEB7
:10472000089BC01AA84201D8002DE5D13368BAF120
:10473000010F0CBF5B699B6927EA03039BB2B3FAC5
:1047400083F35B099945D7D10023202201203363ED
:1047500086F83D2086F83E30326C86F83C3042F0D8
:1047600020023264BDE8F8867047000070B5044648
:1047700008B9012070BD90F83D3003F0FF021BB96D
:1047800080F83C20FFF7F0FF242384F83D302368B5
:104790001A6822F001021A601A6842F400421A6094
:1047A0001A6822F400421A6001F088FB3F4B6568EA
:1047B0009D4294BF3E4B3F4B98428CBF0023012348
:1047C000002BD6D1394E3C4BB542B0FBF3F388BF3A
:1047D0004FF496762268516821F03F0141EA0301C7
:1047E00082BF73434FF47A76B3FBF6F35160116ADC
:1047F000013321F03F010B431362D169431E2B4863
:1048000021F44F41854221F0FF0132D86D00B3FB06
:10481000F5F340F6FC700133034242D0C3F30B03BF
:104820001943D1611168D4E9073021F0C001034375
:104830000B4313609168D4E9030321F4034103435C
:1048400021F0FF010B439360D168D4E9053021F0DA
:10485000FF0103430B43D3601368002043F00103BF
:1048600013602023206484F83D30206384F83E00E8
:1048700080E7A06850B905EB4505B3FBF5F30133BC
:10488000C3F30B037BB143F40043C9E7192068432A
:10489000B3FBF0F30133C3F30B0323B143F4404301
:1048A000BEE70423BCE70123BAE700BFA0860100EE
:1048B0007F841E00FF083D0040420F00704710B586
:1048C000044698B12423026880F83D30136823F031
:1048D00001031360FFF7F2FF0020206484F83C001E
:1048E00084F83D00206384F83E0010BD0120FCE701
:1048F0002DE9F04F044685B01F4688469246FFF7E3
:10490000DDFD94F83D300546202B03D0022005B094
:10491000BDE8F08F00901923012220464C49FFF793
:10492000E3FE0028F2D194F83C30012BEED00123B5
:1049300084F83C30236800261A68DFF814B1D007E9
:1049400058BF1A6808F0FE085CBF42F001021A6006
:104950001A6822F400621A60242384F83D303D4B2B
:104960002664E36222684FF001111368204643F485
:10497000807313603B4600220095FFF7B5FE236865
:1049800038B11B680320D90544BF4FF4007323647A
:10499000BDE7C3F81080FFF791FD4FF0A009054671
:1049A00023685A695B69C2F34002C3F3802394F819
:1049B0003D10A0291CD14FF02009236884F83D90B8
:1049C0005A6992072BD51A68204642F400721A6081
:1049D000002203925A691E4903929B6901220393A4
:1049E000039B00951923FFF77FFE98B101208EE706
:1049F0001343E0D1FFF762FD401BB84200D80FB966
:104A000084F83D9023685A695B69C2F34002C3F39E
:104A10008023CCE784F83D9084F83C0077E71A685F
:104A2000594642F400721A606FF4806220465A615F
:104A3000192301220095FFF757FE0028D6D1013631
:104A400056458FD384F83D9084F83C00CEE700BFF4
:104A5000020010000000FFFFF7B500250446009596
:104A6000019594F83D500898202D02D0022003B003
:104A7000F0BD25682E68B60503D4082801D00128AA
:104A80001BD146F2A817274E3668B6FBF7F6192752
:104A90007E430196019E013E0196019E56B9202358
:104AA000266384F83D3084F83E60236C43F0200395
:104AB0002364DBE7AE69B707ECD494F83C60012EC1
:104AC000D4D02E68F6075EBF2E6846F001062E6031
:104AD0002E6826F400662E60212684F83D6010269C
:104AE00084F83E60002626646385638DE06261641D
:104AF0002385236B62620093009B112B05D1B0F5D7
:104B00002A0F02D0B0F12A4F03D12B6843F48073EF
:104B10002B60002084F83C006B6843F4E0636B601A
:104B2000A5E700BFFC000020F7B50025044600956E
:104B3000019594F83D500898202D02D0022003B032
:104B4000F0BD25682E68B60503D4082801D00128D9
:104B50001BD146F2A817364E3668B6FBF7F6192772
:104B60007E430196019E013E0196019E56B9202387
:104B7000266384F83D3084F83E60236C43F02003C4
:104B80002364DBE7AE69B707ECD494F83C60012EF0
:104B9000D4D0012684F83C602E68F6075EBF2E68EC
:104BA00046F001062E602E6826F400662E6022264E
:104BB00084F83D60102684F83E60002626646385F4
:104BC000638DE06261642385236B62620093638D71
:104BD0009BB2022B24D1202801D0102820D1009B89
:104BE000122B2B681DD14FF4407223F480632B608D
:104BF0002B6843F400632B60009B122B05D1B0F5AA
:104C00002A0F02D0B0F12A4F03D12B6843F48073EE
:104C10002B60002084F83C006B6813436B608EE7C8
:104C20002B6843F480634FF4E0622B60E4E700BF3D
:104C3000FC00002037B5044690F83D0000F0280045
:104C4000282830D100292CD0002A2AD094F83C0002
:104C5000012828D025682868C0075EBF286840F072
:104C600001002860286820F400602860292084F86A
:104C70003D00202084F83E00002020646285628D83
:104C8000E36201906B6961620193AB6984F83C0057
:104C90000193019B6B68228543F4E0636B6003B072
:104CA00030BD0120FBE70220F9E737B5044690F854
:104CB0003D0000F02800282830D100292CD0002AFF
:104CC0002AD094F83C00012828D025682868C0071D
:104CD0005EBF286840F001002860286820F400606A
:104CE00028602A2084F83D00202084F83E0000201F
:104CF00020646285628DE36201906B696162019359
:104D0000AB6984F83C000193019B6B68228543F4F6
:104D1000E0636B6003B030BD0120FBE70220F9E7E0
:104D200090F83D30202B14D1282380F83D300368C3
:104D300000201A68D2075EBF1A6842F001021A60AA
:104D40001A6842F480621A605A6842F440725A60EB
:104D500070470220704770477047704790F83D20B9
:104D600008B5036DD2B283B9C36C0268012B836CA2
:104D700005D1DBB21361036D0233036508BDC3F3D4
:104D800007231361036D0133F7E7036D012B03D193
:104D9000836C0268DBB2F4E7036D022B2FD1222A69
:104DA00005D10268136843F480731360EAE7438D0A
:104DB0009BB263B1212A0AD1436A026813F8011B2E
:104DC00011614362438D013B9BB24385D6E7438D1E
:104DD0009BB2002BD2D1212AD0D10268516821F494
:104DE000E0615160116841F4007111602022036399
:104DF00080F83D2080F83E30FFF7AFFFBEE7036844
:104E00005A69120644BF00221A61B7E7704770471B
:104E1000002337B546F2A81101932C4B406A1B685A
:104E200090F83D20B3FBF1F323214B43019303683A
:104E3000D2B2019941BB016C41F020010164446B85
:104E40000CB10021A162816B09B100258D621D6842
:104E500025F480651D600025458504B1656301B1B9
:104E60004D63196821F00101196090F83D10602927
:104E700011D1202380F83D30002380F83E300364B8
:104E8000FFF7C5FF03B030BD0199013901911968E1
:104E90008905CED4D3E702F02802282A0ED119685A
:104EA00041F001011960196841F480611960002323
:104EB000036380F83D20FFF7EFF9E3E7202380F854
:104EC0003D30002380F83E30F5E700BFFC000020B5
:104ED00010B590F83D2090F83E300446102BD9B222
:104EE000D2B2036801D0402913D1222A11D1196806
:104EF00021F400611960596811F4006106D1602A3B
:104F00001EBF202284F83D2084F83E100022226338
:104F100007E002F028012829EDD10022226384F85D
:104F20003D105A6812F400624FD05A68606B22F448
:104F300000625A6090F82130012B374B2BD043632D
:104F4000FFF77CFB50B12268606B136823F001030C
:104F50001360202384F83D30436B9847236C190776
:104F60001FBF2268536823F4E063536094F83D3018
:104F7000226CDBB252070DD5282B0BD1274B2022F8
:104F8000E36200232046236384F83D2084F83E300A
:104F9000FFF757F910BDA06B4363FFF74FFB0028E5
:104FA000DCD023685A69510605D51A69636A1A70FC
:104FB000636A013363622268A06B136823F0010304
:104FC0001360202384F83D30C6E794F83D10602933
:104FD00015D1202184F83D1022645A69520605D566
:104FE0001A69636A1A70636A013363622268204631
:104FF000136823F001031360FFF709FFAEE75A6956
:10500000500605D51A69636A1A70636A01336362D0
:105010002046FFF741F9A1E7114E00080000FFFF0D
:10502000F0B5044603688FB05A68C66A90F83E002F
:1050300094F83D101028C5B2C9B202D0402D40F0FE
:10504000D7829F69586910F0010F07D1B6F52A0F72
:1050500002D0B6F12A4F51D10FB0F0BD96054DD513
:10506000E26AB2F52A0F0CD10122E26294F83E20E6
:10507000402A11D1226D52B9626C02F0FE021A610F
:10508000EAE7E26AB2F12A4FF0D10822EDE7626C5A
:1050900042F00102D2B2F2E72269B2F5804F1AD192
:1050A00094F83D20212A626C11D102F0FE021A61AF
:1050B000626B0AB1926A2AB9A26B002ACCD0926ABA
:1050C000002AC9D05A6842F400625A60C4E742F02C
:1050D0000102D2B2EBE7226D32B9626CD21102F05A
:1050E000060242F0F002CAE7226D012AB4D1626CD6
:1050F000D21102F0060242F0F102C0E7060703D522
:10510000960501D5626CE4E7860740F1F0809605CC
:1051100040F1ED8094F83E10E26A256B94F83D0072
:10512000C9B2222840F0DB80206D40B9402906D169
:1051300000905A6900929B690093009B8CE7216D57
:1051400089B92069B0F5404F0DD101915A6901929A
:105150009A690192019A1A6842F480721A60236D6A
:105160000133236578E7618D89B251B902915A699B
:1051700002929A690292029A1A6842F400721A60C4
:1051800019E0618D89B2012949D112F5803F1BD107
:105190001A6822F480621A605A6812F400620CD015
:1051A0001A6822F480621A60002203925A690392FC
:1051B0009B690393039B0023D3E704925A690492EB
:1051C0009A690492049AD7E7082A1CD0202A1AD098
:1051D000122D0DD1012A16D11A6822F480621A60AC
:1051E000002205925A6905929B690593059BE2E7A7
:1051F000102AF1D8864941FA02F2D707ECD41A688E
:1052000042F48062EBE71A6822F480621A6000229E
:1052100006925A6906929A690692069AACE7618DDF
:1052200089B2022938D1102A03D87A49D140CE0751
:1052300018D4196841F40061196000210791596977
:105240000791996907910799196821F4806119609C
:1052500059680D05AFD5202A1BD8072A0ED8012A78
:10526000A9D111E0196841F4806119600021089109
:1052700059690891996908910899E9E7A2F108012B
:10528000654ACA40D00796D55A6842F480525A609F
:1052900091E712F5803FE3E7196841F480611960F6
:1052A0005968090510D5202A16D8072A06D8012AD8
:1052B0000AD15A6842F480525A6005E0A2F108010E
:1052C000554ACA40D207F4D4002209925A69099279
:1052D0009B690993099B6EE712F5803FE8E700227E
:1052E0000A925A690A929B690A930A9BB4E67F075D
:1052F00040F194805E6836053FF5AEAE070600F0DB
:1053000004063ED550053CD5002E3DD194F83D20F5
:10531000258D94F83E10D2B2E06AC9B2C5B9212AEF
:1053200018D1082858D0202856D010F5803F53D0E7
:105330005A6822F4E0625A6011232363002384F840
:105340003E302023204684F83D30FFF704FD83E6FD
:10535000212A05D040297FF47FAE222A7FF47CAE3B
:10536000628D92B21AB95A6822F48062ADE694F85E
:105370003E20402A16D120460FB0BDE8F040FFF78E
:10538000EDBC002E3FF468AE97057FF565AE212990
:1053900039D1E16A94F83D20212A7FF45DAE628D17
:1053A00092B24AB1626A12F8011B19616262638D9E
:1053B000013B9BB263854FE608290DD020290BD015
:1053C00011F5803F08D0596821F4E061596011233C
:1053D000236384F83E20B4E75A68204622F4E06252
:1053E0005A601A6842F400721A6000232022236374
:1053F00084F83D2094F83E2084F83E30402AA4D121
:10540000FFF7ABFC28E6402D7FF426AEB3E700BFE4
:10541000EBFFFEFF140001000101000159680E05B9
:105420003FF51AAE450600F0040176D5500574D557
:10543000002975D194F83D20222A7FF40DAE628DAB
:1054400092B2032A14D91A69636A1A70636A013323
:105450006362638D013B9BB26385638D9BB2032BBB
:105460007FF4FAAD2268536823F480635360F3E558
:10547000E06A02283FF477AF012A3FF674AF0B9140
:1054800046F2A811734A1268B2FBF1F202EB8202F3
:105490000B920B9A013A0B920B99D1B9226C2046D0
:1054A00042F0200222645A6822F4E0625A601A69CB
:1054B000636A1A70636A01336362638D013B9BB256
:1054C0006385202384F83D3084F83E10FEF7E4FE27
:1054D000C2E51A6812F40072DBD1196821F4806108
:1054E0001960596821F4E06159601969636A19709B
:1054F000636A01336362638D013B9BB26385202342
:1055000084F83D3094F83E3084F83E20402B69D139
:1055100022632046FFF77AFC9EE500293FF49CAD0C
:1055200092057FF599ADE26A608D616A80B20428C8
:1055300009D15A6822F480625A601B690B70636A51
:105540000133636233E7608D80B203280CD1586861
:10555000042A20F480605860EFD0022AEDD01A6847
:1055600022F480621A60E8E7608D80B20228E4D1FC
:10557000042A33D007D8012A07D0022A2ED01A686D
:1055800042F4007204E0102AF9D11A6822F4806211
:105590001A601B690B70626A531C6362638D013B66
:1055A0009BB2638523681B695370636A2268013369
:1055B0006362638D013B9BB26385536823F4407340
:1055C0005360202384F83D3094F83E30402B4FF058
:1055D000000384F83E3005D123639AE71A6842F449
:1055E0008062D5E7122320462363FFF7B5FB33E53E
:1055F000206C10B30025586987072DD596052BD54B
:10560000226C02B19D6994F83D2002F02802282AFC
:1056100016D15A682F0622F480625A604FF00003B8
:1056200085F00401204654BFA289228BC1F380017A
:1056300084F83C30FEF7D1FD0EE59D695869DBE743
:1056400000220C9259690C919B6984F83C200C93C0
:105650000C9B01E5FC000020C60640F1B1809505D9
:1056600040F1AE8094F83D505A68EDB222F4E06209
:105670005A6000220D925A690D921A6842F0010296
:105680001A600D9A1A6822F480621A605A6810052E
:1056900020D505F0F702222A4AD1A06B0268526891
:1056A00092B26285628D92B21AB1226C42F004020B
:1056B00022645A6822F400625A60FFF705F8012854
:1056C00008D0A06B794B4363FEF7B8FF10B1A06B15
:1056D000436B9847638D9BB213B323685A69510794
:1056E00009D51A69636A1A70636A01336362638D4C
:1056F000013B9BB2638523685A69520609D51A6932
:10570000636A1A70636A01336362638D013B9BB203
:105710006385638D9BB21BB1236C43F00403236448
:10572000236C13B320460FB0BDE8F040FFF7D0BBA9
:10573000606B0268526892B26285628D92B21AB151
:10574000226C42F0040222645A6822F400625A6019
:10575000FEF7BAFF0128BDD0606B544B4363FEF7E0
:105760006DFF0028B6D0606BB2E72A2D06D1236307
:105770002823204684F83D30FEF778FD94F83D302C
:10578000282B0CD14A4B2022E362002320462363BE
:1057900084F83D2084F83E30FEF753FD5CE4236B33
:1057A000222B02D0222D7FF457AC0023202223632A
:1057B00084F83D2084F83E302046FEF757FD4BE448
:1057C00001F0F701212900F0040535D1070627D59E
:1057D000560525D53DBB94F83D00628DC0B292B20E
:1057E000002A3FF439AC626A12F8015B1D61626203
:1057F000628D013A92B26285628D92B2002A7FF484
:105800002BAC29287FF428AC5A68204622F4806209
:105810005A602823216384F83D30FEF739FD1BE4EC
:10582000002D3FF419AC95057FF516AC628D92B250
:10583000002A3FF411ACB5E5400627D5510525D522
:105840003DBB94F83D20618DD2B289B200293FF46E
:1058500003AC1969636A1970636A01336362638D0B
:10586000013B9BB26385638D9BB2002B7FF4F4AB4D
:105870002A2A7FF4F1AB2268536823F480635360D3
:1058800022232363282384F83D3095E7002D3FF43D
:10589000E3AB92057FF5E0AB628D92B2002A3FF454
:1058A000DBAB1A69636A1A7049E600BF114E000843
:1058B0000000FFFFF8B5036804465F695E6890F872
:1058C0003E2017F48075D2B20AD016F4807507D046
:1058D0006FF4807101255961196841F40041196024
:1058E000B80506D5F10542BF6FF4007145F0020519
:1058F0005961780536D5F10534D5608D94F83D10A1
:10590000202AD4F830C080B2C9B25FD100285DD15E
:1059100001F0F700212804D0282957D1BCF1210F2C
:1059200054D194F83D20E16AD2B2082901D020294F
:105930002AD1282A28D12E4A2046E2625A6822F427
:10594000E0625A606FF480625A611A6822F48062E1
:105950001A6000232022236384F83D2084F83E301F
:10596000FEF76FFC3A053FD5F3053DD56FF40062B5
:10597000236845F008055A61236C20462B432364B5
:10598000BDE8F840FFF7A4BA212A1BD11849E1620B
:1059900022630021202284F83D2084F83E105A68BA
:1059A00022F4E0625A606FF480625A611A6822F44D
:1059B00080621A605A69100648BF19612046FEF7D6
:1059C00067FCCFE76FF480625A61CBE76FF48061C8
:1059D000102A596145F0040501D0402AC2D11A6845
:1059E00042F400721A60BDE7002DC5D1F8BD00BFBA
:1059F0000000FFFF90F83D007047006C704700000A
:105A00002DE9F341054638B30368DB0710D42B6852
:105A10009F075ED42B68190700F195802B685A0701
:105A200000F1C180EB69002B40F02C81002029E0BF
:105A3000904C636803F00C03042B07D0636803F0F9
:105A40000C03082B0AD16368DE0307D523689C0387
:105A5000DDD56B68002BDAD1012013E06B68B3F55C
:105A6000803F12D1236843F480332360FEF726FD84
:105A7000064623689803CAD4FEF720FD801B6428DD
:105A8000F7D9032002B0BDE8F0819BB9236823F465
:105A900080332360236823F480232360FEF70EFD08
:105AA000064623689903B2D5FEF708FD801B6428DB
:105AB000F7D9E6E7B3F5A02F236803D143F4802399
:105AC0002360CFE723F480332360236823F480230B
:105AD000CBE7684C636813F00C0F07D0636803F0E2
